:100000001C4C040000000000000000000000000084
:1000100000000000000000000000000000000000E0
:100020000000000000000000B24D000000000000D1
:10003000000000005A510000000000000000000015
:10004000A0500000000000000000000000000000C0
:1000500000000000000000000000000000000000A0
:10006000000000009C4C0000984B000000000000C5
:100070000000000000000000000000003C510000F3
:1000800000000000EC4D0000000000000000000037
:10009000000000001E4E00000000000000000000F4
:1000A0000000000000000000000000000000000050
:1000B000000000000000000076510000524C0000DB
:1000C0000000000000000000000000000000000030
:1000D0000000000000000000000000000000000020
:1000E0000000000000000000000000000000000010
:1000F0000000000000000000000000000000000000
:1001000000000000000000000000000000000000EF
:1001100000000000000000000000000000000000DF
:1001200000000000000000000000000000000000CF
:1001300000000000000000000000000000000000BF
:1001400000000000000000000000000000000000AF
:10015000000000000000000000000000000000009F
:10016000000000000000000000000000000000008F
:10017000000000000000000000000000000000007F
:10018000000000000000000000000000000000006F
:10019000000000000000000000000000000000005F
:1001A000000000000000000000000000000000004F
:1001B000000000000000000000000000000000003F
:1001C000000000000000000000000000000000002F
:1001D000000000000000000000000000000000001F
:1001E000000000000000000000000000000000000F
:1001F00000000000000000000000000000000000FF
:10983800AF772100F07F220020A0B70010002000A1
:1098480034A0B700400020004420B700A451020013
:10985800000000008A1F78005EFD0700B9FD0700C0
:10986800CCFC07000040E20006003A00A8012000F6
:1098780027E726000E20ED00FEFF3A001020ED003D
:10988800FCFF3A009A9D200003F90700E3FC07005B
:0C989800FFFF37004F057800FFFF37008E
:0C8DDC00F0FF2F00A8A2B7000000060066
:108F4C008A1F78008B1F78000A5822000B00200023
:108F5C006EFC0700B8002000D7C222000E20ED00E6
:108F6C00FEFF3A001020ED00FCFF3A00CF05780020
:088F7C004F057800000006001B
:108118000800FA00A0D1220050BB8800F0FF2F0011
:1081280060BB8800F0FF2F0070BB8800F0FF2F00B5
:1081380040BB88001622EF000000280018A2B700F4
:108148005EFC0700823E20000300200056ED070079
:108158000002BE00F0FC07004100DE0064004000A1
:10816800800078000A01BE008100E90003003500A4
:108178000201D0008381D200FBFF3700020798007C
:1081880013079800849FBE000400BE000002EB00A5
:1081980001E407004F02BE0020079800310798004D
:1081A8000400BE000E0190009E0190000002EB004A
:1081B800D0E30700800178000102780060004700E2
:1081C8005001D100C080D300640047003008E100AE
:1081D8002090E1000400310061804100E0004A0085
:1081E8000001BE0002003700030178008401780016
:1081F80061005100E0805900F01088001822A900A1
:1082080017E2A8001942A80019FD070018FD070089
:088218000080FA0000000600DE
:0C72C400008823001100200000000600DC
:087520004000200000000600FD
:10767800B8002000D7C222000E20ED00FEFF3A001D
:0C7688001020ED00FCFF3A00000006009E
:1036B0000000FA00020AB800500088000200B800BA
:1036C00081004200032AB800810042000080FA0015
:0436D00000000600F0
:1011A0000000FA000200070024090400000000000B
:1011B0000800E20002003A001000070000000600EC
:1011C000811F78000200E20002003D006000100074
:1011D000E08018000600E20002003D0060011100FE
:1011E000E0811900050007004F00E00002003B000D
:1011F00060001000E08018000000060002000700F8
:101200000480BE00000006006022B8000602200034
:101210000000D0008180D2000482D2008582D200FA
:101220000000A8000202520083825A0003003B0023
:101230000202420083824A000000A1000603E90086
:10124000F3FF3A00000006000080FA0000000600EC
:001250009E
:1010FC000000FA0002000700CC0804000000000009
:10110C000800E20002003A00100007000000060090
:10111C00839F68000200E20002003D0060001000A6
:10112C00E08018000600E20002003D0060011100A2
:10113C00E0811900050007004F00E00002003B00B1
:10114C0060001000E0801800000006006022B8006B
:10115C00060220000000D0008180D2000482D20060
:10116C008582D2000000A8000202520083825A003D
:10117C0003003B000202420083824A000000A100EF
:10118C000603E900F3FF3A00000006000080FA00B5
:04119C000000060049
:108B9C000060EF0040C7AF000060EC000000060072
:008BAC00C9
:087CA00032FE0700000006009F
:10756C000000FA000220EF001A4078006004E100ED
:10757C000A0032008A1F78000085FB002AF90700F8
:10758C004F05780061C04000804078000080FB000F
:10759C000000450010407800F4FF37000080FA002E
:0475AC0000000600D5
:105A34000000FA001902AF0001003700FDFF370033
:0C5A4400DA1088000080FA000000060064
:108C24008A1F78008B1F78008C1F7800D7FC070000
:108C3400D0FD0700EA3D210018FC0700A5FE07004F
:108C4400BA3C210015FC0700A1FE0700EAF9200048
:108C540012FC0700C2FE07005A3B21000FFC07006C
:108C6400A2FE07001A3F21000CFC070027FE0700A4
:108C7400BAF8200009FC07006BFE07000AF1200087
:108C840006FC0700A2FD07008AF6200003FC07008B
:108C9400FB2621003CA823002AC0B3007CFA07006D
:108CA4006AF42000FDFB07004F067800CF0578002A
:088CB4004F05780000000600E6
:107F90008A1F78008B1F7800D342A800DE42A80019
:107FA000DE62A800D222A800C7E2A800D322A8005F
:107FB000CDC2A800CDA2A800D2C2A800D2E2A800DB
:107FC000E422A800D2A2A800D282A800D262A8000F
:107FD000209E20000048EB00D4C2AF001048E8000B
:107FE000D0C620000048EB00D4E2AF001048E80003
:107FF00010BB20000048EB00E622AF001048E8006C
:1080000010CC20000048EB00D4A2AF001048E800DC
:1080100040B020000048EB00D482AF001048E800D8
:1080200050B020000048EB00D462AF001048E800D8
:10803000C006200004A2B7000A6A28001B00200026
:108040005BFD07001BC0B3002AC4B30038FD070066
:108050002AC4B300E704070000E0EE008040780087
:108060000080FB00811F7800801F7800E0E62C0074
:10807000801F780000AA2000801F780011F30700FD
:108080006F00B1000AAA200005FF0700CF007800AA
:10809000600CE10002003A000020EF00030037000E
:1080A00001457800660407006340500000457800F1
:1080B0000701070000457800160207001BC0B30047
:1080C0007AC0B300A8FB07001BC0B3004AC0B300CE
:1080D000A5FB07001BC0B3005AC0B300A2FB0700FA
:1080E0001BC0B3006AC0B3009FFB07001BC0B300F6
:1080F0008AC0B3009CFB07001BC0B3009AC0B3004A
:1081000099FB07007AA92000E5FE0700CF0578005B
:088110004F0578000000060095
:1075B0000400FA0043FF0700A20F20000300200090
:1075C0003BF007000001BE00829FBE008A9FBE0004
:1075D0000200BE0072442F00030120000002EB00F5
:1075E000C6E607004F05BE004F01BE000007980029
:1075F000110798000200BE000A01BE000002EB0065
:10760000BEE607000001BE006000470030015100E7
:10761000A081590061005100E080590020108800CD
:1076200007E2A800140007000822EF0021FA070073
:0C763000B7FA07000080FA000000060016
:105EB4000000FA00700007000000E20001003A0050
:0C5EC400FCFF37000080FA000000060020
:10607C000000FA000260EF000602AF000260EC00C4
:10608C000060EF000642AF000060EC008180FB0076
:10609C000080FB00808070000060EF000662AF00A3
:1060AC000060EC000080FB00808070000060EF005E
:1060BC000682AF000060EC000080FB008080700066
:1060CC000060EF000622AF000060EC000080FB00D7
:1060DC00808070000060EF0009C2AF000060EC002F
:1060EC000080FB00008070000000E2000060EF0008
:1060FC0001003A000060EC000080FB000080FA0018
:04610C000000060089
:10611000670020000E20ED00FEFF3A0000000000A6
:08612000000000000000060071
:107530008A1F7800B2FF0700A6FF07003AC0B30019
:10754000A4FF07001640E20002003200F0CFB300B3
:10755000010037000020EF00004578009DFF070084
:0C7560005BFF07004F05780000000600EC
:107400000000FA000420EF00007122000010E100EB
:1074100006003E0019FB07000000E20001003200F8
:10742000020037000420EC00F7FF37001071220043
:107430000010E10002003900F00F200003003700C7
:107440000602A8002FFA07000020EF000080FA00D3
:047450000000060032
:105D04000000FA0085C0AF0001003700FDFF370036
:0C5D140085C0A9000080FA000000060015
:1073D4000000FA000A80FB0002A2B70008E2AE0037
:1073E40002003700100020000200370044FA0700B2
:0C73F4000020EF000080FA0000000600FE
:1072D0000000FA000682BF007F0060000000E200AC
:1072E00001003200FBFF37000642A80085FA0700C4
:0872F0000080FA000000060016
:1093F4000200FA008A1F78008A1F78002AF32000EE
:1094040026FA07004F057800FCF707008A1F78004A
:109414002A47210021FA07004F057800ECF70700DE
:109424008A1F7800801F780040D82C00801F7800A5
:1094340000AA2000801F780021EE07006F00B10011
:109444000AAA200015FA07001420EF00E0F707002D
:10945400CA45210011FA07004F0578009CFB07005C
:109464008A1F78005A4A21000CFA07004F05780039
:109474000A80FB006100700000457800D4F7070003
:109484009A48210005FA07001420EF0032FD070076
:10949400004798008DF70700AA442100FFF9070050
:1094A400600047001080FB00801F7800F0EB2C0068
:1094B400801F780000AA2000801F780000EE0700BB
:1094C4006F00B1000AAA2000F4F907000E409000D2
:0C94D4004F0578000080FA000000060040
:104CC4000200FA008A1F78008B1F78008C1F78007E
:104CD4004EB99700E00047006A005700800878004A
:104CE400821F780001067800BEBD97000205780097
:104CF40070F107004F0178008001780080004100C6
:104D04000020EF0080487800030078004F06780008
:104D1400CF0578004F0578000080FA0000000600F7
:004D24008F
:1012B8002800FA0000002000500F98008B007800EA
:1012C800618045008005780011407800204F980023
:1012D8000040E20039083200AE48900050C2B30026
:1012E800000CE100080032002E489000004D780004
:1012F8006100450000057800DE0890007A0047008C
:1013080061884000EDFF37000020EF00600798007B
:101318000020EF00700798001F003700FE009000C3
:101328006E0047006888700061804500800578007D
:101338002E003700FE0090006E00470061887000A4
:10134800618045008005780028003700FE00900085
:101358006E00470062887000618045008005780053
:10136800220037007E019000018020006E004700B7
:101378000108710061804500800578001B00370076
:10138800FE0090006E004700648870006180450090
:1013980080057800150037009B407800D0C2B30064
:1013A800000CE100DDFF32009B40780000C2B30072
:1013B800000CE100DFFF32009B407800B0C2B300B0
:1013C800000CE100E1FF32009B40780030C2B3001E
:1013D800000CE100E3FF32009B40780000C3B3003B
:1013E800000CE100E6FF320001003700CAFF3700B9
:1013F8006E0047001010A60004003700E2FF2F001F
:10140800EE0047006E004700110861006E004700BB
:101418001030A60004003700B2FF2F00EE0047008E
:101428006E004700110861001B4078000080FB0037
:101438008A1F780000457800AFFC07004F05780048
:101448000000E200160032000020EF00600798005C
:10145800EE009000A00020000089B9001B40780031
:101468000080FB0000024100010320006C004700DF
:101478000108520061804500800578001B40780013
:101488000080FB008A1F7800004578009AFC07005E
:101498004F0578000000E200EDFF3A000D0037002C
:1014A8009B407800A0C2B300000CE10009003A009C
:1014B8008C0078001C00780000A0ED00000E780079
:1014C80011007800100078006007980061804500DE
:1014D800800578009B407800E0C2B300000CE10072
:1014E80027003A0061804500800578009B4078001D
:1014F800A0C2B300000CE1000A003A008C0078009A
:101508001C00780000A0ED00000E780011007800A3
:101518001000780040079800618045008005780039
:10152800160037000020EF00400798001B407800A5
:101538000080FB008A1F7800004578006EFC0700D9
:101548004F0578000000E2000C003200CE00900049
:10155800A00020000089B9001B4078000080FB0033
:101568000002410001032000680047000108520002
:101578006180450080057800ECFF370006003700E1
:101588000020EF00400798007E0190000100210034
:101598006E004700010871008B00780061804500EB
:1015A8008005780011407800204F98009700370098
:1015B8005E08900082073700FE0090006E0047002A
:1015C80070887000F4FF37007E0190000140200011
:1015D8006E00470001087100CC00370002022000AD
:1015E800EE0047006E004700110871007E01900070
:1015F800011020006E00470001087100C300370089
:101608007E019000012020006E0047000108710053
:10161800BE00370002042000EE0047006E004700BD
:1016280011087100B9003700B80037000202200025
:10163800EE0047006E004700110871000208200004
:10164800EE0047006E00470011087100AF00370038
:101658008C0078001C00780000A0ED00000E7800D7
:101668001100780010007800300F98006000E10049
:1016780002003A00804C2100300F98000020EF0053
:10168800400F9800BE089000780047001080400086
:101698001004E000040032004E0890000020EC0026
:1016A800400F9800F7FF3700680047001000E0007F
:1016B80006003200CE009000780047001008E100D4
:1016C800020031004E009000400F9800EE0090009C
:1016D800780047001008E100050036006E01900010
:1016E800F80047006C00470011085100020037005D
:1016F8000020EF00600798006E0047001030A70038
:101708000E0037006E019000EE0090006C0047005C
:10171800618850000400E2000800320000C2B300F3
:10172800004D78006100450000057800DE08900053
:101738007A00470061884000F2FF3700CE08900029
:101748004E0890000020ED00400F98000200E200D3
:101758000B0032003E089000104D780061004500F3
:10176800000578003E0890000020EC00300F98003B
:10177800DE0890007A00470061884000EFFF3700DC
:101788006E0047001030A6000E0037006E01900072
:10179800EE0090006C004700618850000400E200F1
:1017A8000800320000C2B300004D78006100450017
:1017B80000057800DE0890007A0047006188400044
:1017C800F2FF3700BDFE37008C0078001C0078005F
:1017D80000A0ED00000E78001100780010007800DD
:1017E800204F98006A004700300F98001000200032
:1017F800400F9800ACFF3700020C2000EE004700B5
:101808006E00470011087100400037002E48900014
:101818006004E10066FF3200AE489000C0C6B30025
:10182800000CE10064FF3200AE489000C0C4B30071
:10183800000CE10060FF3200AE48900060C6B300C3
:10184800000CE10060FF3200AE48900050C4B300C5
:10185800000CE10061FF3200AE48900050C6B300B2
:10186800000CE10061FF3200AE48900070C6B30082
:10187800000CE10062FF3200AE489000F0C6B300F1
:10188800000CE10063FF3200AE48900040C6B30090
:10189800000CE10064FF3200AE48900090C6B3002F
:1018A800000CE10060FF3200AE48900000C7B300B2
:1018B800000CE1005DFF3200AE48900080C5B30027
:1018C800000CE10059FF3200AE48900080C7B30019
:1018D800000CE10059FF3200AE48900030C7B30059
:1018E800000CE1005AFF3200AE48900030C6B30049
:1018F800000CE100B4FF3200AE48900050C7B300BE
:10190800000CE100BCFF3200B6FF3700FE0090007B
:101918000070200000806000980432006E004700CC
:1019280010C0A600020037006000200040079800A1
:101938008C0078001C00780064005000000E7800CD
:10194800110178001200BE00000F9800110F9800D6
:101958008C1F78008A9FBE000420EF000620EF004D
:10196800FDFA07000000E0000060EF0001003D0004
:101978000060EC004F05BE004F0678000040E20012
:101988000A0032008E0990001E0A90000100200013
:1019980002002800700047000198690002106A00E0
:1019A800FE0090006E004700638870000020EF0082
:1019B800200F98008C1F78008A9FBE000E089000A8
:1019C8009E0890000420EF000620EF00E2FA0700CE
:1019D8000000E0000060EF00010032000060EC0051
:1019E8004F05BE004F0678000040E2004900320073
:1019F800F401470070004700B0007800200178002B
:101A0800C710DE000001EB00F00F200080806000AE
:101A1800E0072000008050008009780011002000B5
:101A28007400470010881000AE08900030002000B5
:101A3800008AB900240F9800A200200011000900B4
:101A48000202D800200F98006000E10003003D006A
:101A58001100200074004700108810002E08900024
:101A6800600010008C1F78008A9FBE000045780037
:101A78002EFB07000E0990009E099000DEF9070072
:101A8800300F9800410F98000200200003F823004F
:101A98003E089000CE089000AFFA07000000E00072
:101AA8000060EF0001003D000060EC004F05BE0043
:101AB8004F0678000040E2000400320011002000C8
:101AC8007400470010881000120037008C1F78003F
:101AD8008A9FBE0002002000031224003E089000E6
:101AE800CE089000A1FA07000000E0000060EF00B7
:101AF800010035000060EC004F05BE004F0678007D
:101B08000040E2000300320011002000740047008A
:101B1800108840002E0890006000E10003003C009F
:101B280010C0B300204F9800020037004E509000BC
:101B3800204F98006E0047001080A7000E00370065
:101B48006E0047001090A6000A003700C1FF2F0062
:101B5800740047001008E10005003C00AE08900042
:101B6800680047001008E10001003D00010037004F
:101B78000100370004023700680047001000E00049
:101B8800060032006E0047001090A60003003700E0
:101B9800CE00900068004700618850004E00900019
:101BA8006800E1000300360080C0B300204F9800B1
:101BB800020037000E489000204F98008C1F7800D4
:101BC8008A9FBE000E0890009E0890000420EF0037
:101BD8000620EF0060FA07000000E0000060EF0058
:101BE800010032000060EC004F05BE004F0678008F
:101BF8000040E200740032008C1F78008A9FBE000B
:101C08004E559000C9FA07000001BE000E0890006A
:101C18009E08900009060700000F9800110F980011
:101C28006A0047001080FB00600010000045780043
:101C3800BEFA07000001BE000E0890009E08900042
:101C4800FE0507002017980031179800000F98002C
:101C5800110F980036FC0700DAFB0700600F9800A8
:101C6800710F98006E099000FE0990002E109000E8
:101C7800BE1090001AFD07000200200003F02300A8
:101C88003AFA07000000E0000060EF0001003500AC
:101C98000060EC004F05BE004F0678000040E200EF
:101CA8000B0032000E0990009E09900000002000F1
:101CB80001F023008C1F78008A9FBE0052FC0700A9
:101CC8004F05BE004F067800000F9800110F9800CE
:101CD8008C1F78008A9FBE000E0890009E08900016
:101CE80013FC07004F05BE004F0678006A01470045
:101CF8001281FB000420EC00C211DD00A2CC2C00F4
:101D0800030241001401BE000200E1000388E10063
:101D18000F0039008C1F78008A9FBE000E089000C3
:101D28009E089000D2CC2C00C3DC230032F90700B7
:101D38004F05BE004F067800000F9800110F98005D
:101D48001100200074004700108840001E00370072
:101D58008C1F78008A9FBE000E0890009E08900095
:101D6800F3FB07004F05BE004F0678006A014700E5
:101D78001281FB00C211DD00A2CC2C00030241003D
:101D88001401BE000200E1000388E1000E003100EA
:101D98008C1F78008A9FBE000E0890009E08900055
:101DA800020020000312240013F907004F05BE00AB
:101DB8004F067800000F9800110F980011002000BE
:101DC80074004700108810006E0047001090A600AD
:101DD800490037006E00470010B0A70046003700E2
:101DE8004E0090006A00E10002003400A0002000CC
:101DF800400798008C1F78008A9FBE000E0890004C
:101E08009E089000CAFB07004F05BE004F067800E9
:101E1800300F9800410F9800F60047003100780015
:101E2800210070001D0032008C1F78008A9FBE00C0
:101E3800A2002000030020003E089000CE08900079
:101E48000002EB00D4FC07004F05BE004F067800E7
:101E58006000E1006088E10010003A00CE009000C8
:101E680068004700618850008C1F78008A9FBE0078
:101E7800A2002000030020003E089000CE08900039
:101E88000002EB009BFC07004F05BE004F067800E0
:101E9800300F9800410F9800DFFF37006A004700B5
:101EA8009080FB00680047001008E1001200340031
:101EB8006A0047009080FB006800470010805000CF
:101EC8008C1F78008A9FBE000045780017FA07002B
:101ED8000001BE000E0890009E08900057050700FC
:101EE8004F05BE004F067800000F9800110F9800AC
:101EF8000E489000204F98004E0090006501400069
:101F0800EC0047006C00470011081100680047000A
:101F18001000E00004003A006E00470010B0A7006F
:101F28000100370003003700EE0090006C00470006
:101F3800618850007E009000630060000000E200AD
:101F480003003200EE0090006C00470061885000EA
:101F58006E0047001020A6002C0037006E004700D6
:101F68001010A600100037006E0047001000A600F1
:101F780003003700D0C2B3000047980002003700C2
:101F8800B0C2B300004798000E409000004D7800A2
:101F98006100450000057800DE0890007A004700DF
:101FA800618840000A0037006E0047001000A60054
:101FB8000700370000C2B300004D780061004500FB
:101FC80000057800DE0890007A004700618840002C
:101FD8006E0090006000E1000B00340000C3B30005
:101FE800004D78006100450000057800DE0890008B
:101FF8007A00470061884000EE0090006C004700BE
:1020080061885000F2FF37002E0037006E0047004D
:102018001030A7000E0037006E0090006000E1004D
:102028000B00340000C2B300004D78006100450089
:1020380000057800DE0890007A00470061884000BB
:10204800EE0090006C00470061885000F2FF3700F6
:102058006E0047001010A600100037006E00470001
:102068001000A60003003700D0C2B3001047980044
:1020780002003700B0C2B300104798001E4090001D
:10208800004D78006100450000057800DE089000EA
:102098007A004700618840000A0037006E00470058
:1020A8001000A6000700370000C2B300004D7800FA
:1020B8006100450000057800DE0890007A004700BE
:1020C800618840008C1F78008A9FBE000E0890002F
:1020D8009E08900016FB0700300F9800410F9800EB
:1020E8006A0047001080FB00C200DD00A0CC2C0075
:1020F800810040001101BE003E089000CE0890000B
:102108000002EB00FBFB07004F05BE004F067800FE
:10211800020320000300200002004000004D780068
:102128006100450000057800DE0890007A0047004D
:1021380061884000680047001000E00004003A0091
:102148006E00470010B0A700010037003C003700C0
:10215800E0C2B300004D780061004500000578003A
:10216800DE0890007A004700618840006A00470056
:102178001081FB00E80047006800470011081100C3
:102188006A0047001004E0001F00320011C0B300CD
:102198006A00470010C810006A0047001080FB0062
:1021A800C200DD00A0CC2C00810040001101BE005F
:1021B8008C1F78008A9FBE003E089000CE089000D1
:1021C8000002EB00CBFB0700A20020000300200068
:1021D8000002EB00F0FB07004F05BE004F06780039
:1021E800020320000300200000004100004D780099
:1021F8006100450000057800DE0890007A0047007D
:1022080061884000DEFF3700680047001000E000EA
:102218000B00320000C3B300004D78006100450098
:1022280000057800DE0890007A00470061884000C9
:10223800CE0090006800470061885000F2FF370028
:102248006E0047001050A6000800370050C4B300C5
:10225800004D78006100450000057800DE08900018
:102268007A004700618840000700370050C6B30075
:10227800004D78006100450000057800DE089000F8
:102288007A004700618840002E0890006000E10055
:102298000B003D00AE0890007400470060881000F5
:1022A800D0C2B300004D78006100450000057800F9
:1022B800DE0890007A004700618840000700370078
:1022C800B0C2B300004D78006100450000057800F9
:1022D800DE0890007A004700618840002E089000D0
:1022E800A2002000110009000200D8008000780038
:1022F8000003200000804000004D78006100450088
:1023080000057800DE0890007A00470061884000E8
:102318002E089000A2002000110009000200D80039
:102328000003200000804000004D78006100450057
:1023380000057800DE0890007A00470061884000B8
:102348006E0047001030A6000E0037006E009000A7
:102358006000E1000B00340000C2B300004D7800BB
:102368006100450000057800DE0890007A0047000B
:10237800618840006E0090000020ED006007980022
:10238800F5FF3A00CDFB37006E0047001090A6001D
:10239800680037002E0890006000E10005003D004D
:1023A8002E08900061015000E800470068004700CF
:1023B800110811008C1F78008A9FBE000E0890003B
:1023C8009E0890005AFA07004F05BE004F06780095
:1023D800300F9800410F980010C0B300204F9800AC
:1023E8002E4890006A04E100100032006A0047009D
:1023F8001080FB00C200DD00A0CC2C008101400051
:10240800B300780023017800760047003008E10027
:102418002090E100010036000400370011C0B3002D
:102428006A00470010C84000EDFF37006A00470007
:102438009080FB006800470010801000201798006B
:10244800400798008C1F78008A9FBE003E089000C5
:10245800CE089000DBF90700600F9800710F980014
:102468000E0890009E0890006E099000FE099000EA
:102478001BFB07002E1190002017980031179800B9
:1024880002457800A9F807002E119000BE119000AF
:1024980059F707000200200003F023005AFA07004A
:1024A80023FA07004F05BE004F067800300F98004A
:1024B800410F9800680047001000E0001D0032003E
:1024C8008C1F78008A9FBE00A20020000300200015
:1024D8003E089000CE0890000002EB002EFB07009B
:1024E8004F05BE004F0678006000E1006088E100FB
:1024F80010003A008C1F78008A9FBE00A2002000BE
:10250800030020003E089000CE0890000002EB0077
:10251800F8FA07004F05BE004F067800300F980004
:10252800410F9800CE009000680047006188500075
:10253800E0FF37004E0090006C00E1000B003C000B
:102548008C1F78008A9FBE000E4D90000CF8070083
:102558000E0990009E0990002BFA07004F05BE0057
:102568004F067800000F9800110F98008C1F780014
:102578008A9FBE000E0890009E0890000420EF007D
:102588000620EF00F4F707000000E0000060EF000D
:10259800010032000060EC004F05BE004F067800D5
:1025A8000040E200390032008C1F78008A9FBE008C
:1025B8000E0890009E089000DDF907004F05BE0048
:1025C8004F0678006000E1006088E1002F003A00C3
:1025D8002E0890006100E1002C0034008C1F780068
:1025E8008A9FBE004E55900050F807000001BE00BB
:1025F8000E0890009E08900090030700F20527003F
:1026080093082400D4F707000000E0000060EF0002
:1026180001003D000060EC004F05BE004F06780049
:102628000040E200040032009100200074004700DE
:102638001088100003003700810020007400470054
:10264800108810008C1F78008A9FBE004E5590009D
:1026580036F807000001BE000E0890009E089000A2
:1026680076030700B2F907004F05BE004F06780051
:10267800300F9800410F98000020EF000220EF0073
:10268800000F9800110F9800170037008C1F780072
:102698008A9FBE000E0890009E089000A4F90700CB
:1026A800300F9800410F98003E089000CE08900027
:1026B80044F90700600F9800710F98000E08900009
:1026C8009E0890006E099000FE09900084FA0700A9
:1026D8004F05BE004F067800000F9800110F9800B4
:1026E8000020EF00200F980010C0B300204F980082
:1026F8002E4890006A04E100100032006A0047008A
:102708001080FB00C200DD00A0CC2C00810140003D
:10271800B300780023017800760047003008E10014
:102728002090E100010036000400370011C0B3001A
:102738006A00470010C84000EDFF37006A004700F4
:102748009080FB00680047009080400074004700BC
:1027580010814000EC0047006C0047001108110090
:102768006E00470010B0A70004003700680047005B
:102778001000E00001003A0003003700EE0090006E
:102788006C004700618850007E0090006300600084
:102798000000E20003003200EE0090006C004700E9
:1027A800618850006E0047001020A6002C003700FA
:1027B8006E0047001010A600100037006E0047009A
:1027C8001000A60003003700D0C2B30020479800CD
:1027D80002003700B0C2B300204798002E40900096
:1027E800004D78006100450000057800DE08900083
:1027F8007A004700618840000A0037006E004700F1
:102808001000A6000700370000C2B300004D780092
:102818006100450000057800DE0890007A00470056
:10282800618840006E0090006000E1000B003400F9
:1028380000C3B300004D7800610045000005780032
:10284800DE0890007A00470061884000EE009000A2
:102858006C00470061885000F2FF37002E003700F7
:102868006E0047001030A7000E0037006E00900081
:102878006000E1000B00340000C2B300004D780096
:102888006100450000057800DE0890007A004700E6
:1028980061884000EE0090006C004700618850009D
:1028A800F2FF37006E0047001010A6001000370036
:1028B8006E0047001000A60003003700D0C2B30026
:1028C8003047980002003700B0C2B3003047980084
:1028D8003E409000004D78006100450000057800FA
:1028E800DE0890007A004700618840000A0037003F
:1028F8006E0047001000A6000700370000C2B300B2
:10290800004D78006100450000057800DE08900061
:102918007A004700618840002E49900011C0B3003A
:102928006A00470010C810000440E2001C00320092
:102938006A0047001080FB00C200DD00A0CC2C001C
:10294800810040001101BE008C1F78008A9FBE00E4
:102958003E089000CE0890000002EB00E5F9070061
:10296800A2002000030020000002EB000AFA070082
:102978004F05BE004F067800020320000300200028
:1029880000004100004D7800610045000005780016
:10299800DE0890007A00470061884000DEFF3700BB
:1029A8002E0890006000E1000B00340000C3B30063
:1029B800004D78006100450000057800DE089000B1
:1029C8007A00470061884000110020007400470029
:1029D80010881000F2FF37004E0090006800E100F8
:1029E8000300340080C0B300204F98000200370075
:1029F8000E489000204F98006A0047001081FB00A5
:102A0800E800470068004700110811006A00470005
:102A18001004E00004003A006E00470010B0A70060
:102A28000100370007003700E0C2B300004D78000E
:102A38006100450000057800DE0890007A00470034
:102A4800618840008C1F78008A9FBE002E4D900040
:102A580036F707000E0990009E099000E6F507007A
:102A68001CF807004F05BE004F067800300F98008D
:102A7800410F98006A0047001004E0001F00320070
:102A880011C0B3006A00470010C810006A00470070
:102A98001080FB00C200DD00A0CC2C0081004000AB
:102AA8001101BE008C1F78008A9FBE003E0890006E
:102AB800CE0890000002EB008EF90700A20020006B
:102AC800030020000002EB00B3F907004F05BE0029
:102AD8004F06780002032000030020000000410098
:102AE800004D78006100450000057800DE08900080
:102AF8007A00470061884000DEFF37006800470021
:102B08001000E0000B00320000C3B300004D780055
:102B18006100450000057800DE0890007A00470053
:102B280061884000CE00900068004700618850002E
:102B3800F2FF37006E0047001030A6000E00370085
:102B48006E0090006000E1000B00340000C2B3008A
:102B5800004D78006100450000057800DE0890000F
:102B68007A004700618840006E0090000020ED0068
:102B780060079800F5FF3A00D0F93700010C2000F3
:102B88006E004700108060006000E10024003A00F9
:102B98006E0047001040A600090037008C0078003E
:102BA8001C00780064005000000E780011017800C5
:102BB8001200BE00300F9800410F9800090037003E
:102BC8008C0078001C00780000A0ED00000E780052
:102BD8001100780010007800CF80DE00300F9800D8
:102BE800410F98003E089000CE0890006000E10078
:102BF8006088E10009003D00FE0090006E0047007B
:102C0800638870003E089000CE08900060001000B5
:102C1800E0801800300F9800410F98001500370029
:102C28006E0047001040A600090037008C007800AD
:102C38001C00780064005000000E78001101780034
:102C48001200BE00300F9800410F980009003700AD
:102C58008C0078001C00780000A0ED00000E7800C1
:102C680011007800100078008000EB00300F980009
:102C7800410F98004E0090006000E10008003A0003
:102C88003E089000CE0890006000E1006088E100F6
:102C980003003A00CE0090006800470061884000B9
:102CA800010C20006E004700108060000042780090
:102CB8004200370010C0B300204F98002E48900003
:102CC8006A04E100100032006A0047001080FB002F
:102CD800C200DD00A0CC2C0081014000B3007800C8
:102CE80023017800760047003008E1002090E100D9
:102CF8000100360004003700AE4890006A00470023
:102D080061C84000EDFF37003700370010C0B3003E
:102D1800204F98002E4890006804E100100032000F
:102D28006A0047001080FB00C200DD0040D62C007E
:102D380081014000B3007800230178007600470045
:102D48003008E1002090E10001003600040037005F
:102D5800AE4890006A00470061C84000EDFF3700A8
:102D68002100370010C0B300204F98002E48900073
:102D78006C04E100100032006A0047001080FB007C
:102D8800C200DD00E0C32C0081014000B3007800E0
:102D980023017800760047003008E1002090E10028
:102DA8000100360004003700AE4890006A00470072
:102DB80061C84000EDFF37000B0037006024E100D8
:102DC800BCFF320000CCB3000024E100B9FF3200A0
:102DD80000C8B3000024E100CCFF320000C4B300F7
:102DE8000024E100DFFF32006A0047009080FB000A
:102DF800680047001008E10003003D000E489000FD
:102E0800204F9800080037006A0047009080FB00B8
:102E1800680047001008E100030034006A0047001A
:102E28001080FB00400798006C0047001000E0008D
:102E3800070032007E009000630060000000E2009E
:102E480003003200EE0090006C00470061885000DB
:102E5800EE009000680047001008E100050034000B
:102E68006E019000E80047006C004700110851000F
:102E7800020037000020EF0060079800FE00900075
:102E8800408C200080806000008420000008E10061
:102E980007003A006C0047001000E0000300320011
:102EA800EE0090006C004700618850000F0037006A
:102EB800FE009000008C20008080600000882000C8
:102EC8000008E10009003A006E0090006200E1008D
:102ED80004003400EE0090006C0047006288500047
:102EE800020037000020EF00600798006E004700DE
:102EF8001020A600490037006E0047001010A600F9
:102F0800100037006E0047001000A60003003700CD
:102F1800D0C2B3004047980002003700B0C2B300E7
:102F2800404798004E409000004D780061004500F1
:102F380000057800DE0890007A00470061884000AC
:102F4800270037006E0047001000A6000800370071
:102F580000C2B300004D780061004500000578000C
:102F6800DE0890007A004700618840001C003700A6
:102F7800FE009000008C2000808060000088200007
:102F88000008E10016003A0000C3B300004D7800C5
:102F98006100450000057800DE0890007A004700CF
:102FA800618840006E0047001050A60003003700FB
:102FB80080C5B300504798000200370080C7B300AF
:102FC800504798005E409000004D78006100450031
:102FD80000057800DE0890007A004700618840000C
:102FE8006C0047001000E0000B00320000C3B30083
:102FF800004D78006100450000057800DE0890006B
:103008007A004700618840006E0090000020ED00C3
:1030180060079800F5FF3A00580037006C00470039
:103028001000E0000E0032006E0047001030A700CC
:103038000B00370000C2B300004D78006100450066
:1030480000057800DE0890007A004700618840009B
:103058006E0090000020ED0060079800F5FF3A0030
:103068006E0047001010A600100037006E004700E1
:103078001000A60003003700D0C2B30060479800D4
:1030880002003700B0C2B300604798006E4090005D
:10309800004D78006100450000057800DE089000CA
:1030A8007A004700618840000A0037006E00470038
:1030B8001000A6000700370000C2B300004D7800DA
:1030C8006100450000057800DE0890007A0047009E
:1030D80061884000FE009000008C20008080600025
:1030E800008420000008E10008003A0000C3B30093
:1030F800004D78006100450000057800DE0890006A
:103108007A004700618840001C003700FE009000EC
:10311800008C200080806000008820000008E1000A
:1031280016003A0000C3B300004D78006100450066
:1031380000057800DE0890007A00470061884000AA
:103148006E0047001050A6000300370080C5B3008A
:10315800704798000200370080C7B3007047980096
:103168007E409000004D7800610045000005780021
:10317800DE0890007A004700618840006A00470036
:103188009080FB00680047001008E10008003D003F
:1031980000C3B300004D78006100450000057800C9
:1031A800DE0890007A00470061884000F3FF37008E
:1031B8004E019000CE0090006800470061885000E2
:1031C8000400E2006B003200010C20006E00470092
:1031D8001080600040679800520037004E00900051
:1031E800C200DD00A0CC2C00810040001101BE000F
:1031F8008C1F78008A9FBE003E089000CE08900081
:103208000002EB00BBF70700A2002000030020002B
:103218000002EB00E0F707004F05BE004F067800FC
:1032280003C3B3006A01470003494000490037005F
:103238006E0047001050A600140037004E009000A2
:10324800C200DD0040D62C00810040001101BE0004
:103258008C1F78008A9FBE003E089000CE08900020
:103268000002EB00A3F707004F05BE004F067800E9
:103278006F016000E081600000E02C0082004000E7
:1032880011407800204F9800130037004E0090003E
:10329800C200DD0040D62C00810040001101BE00B4
:1032A8008C1F78008A9FBE003E089000CE089000D0
:1032B8000002EB008FF707004F05BE004F067800AD
:1032C8006F016000E081600020E22C008200400075
:1032D80011407800204F98001E0037004E009000E3
:1032E800C200DD00E0C32C00810040001101BE00D7
:1032F8008C1F78008A9FBE003E089000CE08900080
:103308000002EB007BF707004F05BE004F06780070
:103318006701600001C3B3006A004700014841002B
:103328000C003700CE609000600CE100ABFF32006B
:1033380000CCB300000CE100A8FF320000C8B300C5
:10334800000CE100BAFF320000C4B300000CE10039
:10335800E2FF32002E489000004D780061004500E1
:1033680000057800DE0890007A0047006188400078
:103378008FFF37006E0047001030A6000E003700A0
:103388006E0090006000E1000B00340000C2B30042
:10339800004D78006100450000057800DE089000C7
:1033A8007A004700618840006E0090000020ED0020
:1033B80060079800F5FF3A00C0F737005E089000F4
:0833C8000080FA00000006007D
:100700000000FA0090C3B3000054E10005003E0071
:1007100000C3B3000054E1000200390010C0B30070
:10072000010037000020EF000080FB000080FA008D
:0407300000000600BF
:100734000400FA006054E10052003D000A00FB008E
:10074400E000100001457800E0C6B300000CE100B1
:100754002C0035000A00FB004206200011000900AD
:100764000200D80072004000C200DD0060BD2C0011
:10077400010140001200BE00000798001107980014
:100784000A00FB0042062000110009000200D80004
:1007940001007800A2002000110009000200D80026
:1007A40069004000C200DD0060BD2C000102400071
:1007B4001401BE000E0090009E0090008A1F780075
:1007C4008EFE07004F057800000798001107980077
:1007D4000A00FB00A2002000110009000200D8005A
:1007E40001007800C200DD0060BD2C000102400061
:1007F4001401BE000E0090009E0090007FFE0700D2
:100804006E0037006A54E100180034000A00FB004F
:10081400A2002000110009000200D8006900400075
:10082400C200DD0060BD2C00010140001200BE00CA
:1008340000079800110798000A00FB00A20020009E
:10084400110009000200D80001007800C200DD0098
:1008540060BD2C00010240001401BE000E00900097
:100864009E00900065FE0700540037000A00FB005C
:10087400C200DD0060BD2C00010140001200BE007A
:100884004E003700E0C6B3000054E1002C003500F0
:100894000A00FB0042062000110009000200D800F3
:1008A40072004000C200DD00A0C02C000101400025
:1008B4001200BE0000079800110798000A00FB0010
:1008C40042062000110009000200D800010078004F
:1008D400A2002000110009000200D80069004000B5
:1008E400C200DD00A0C02C00010240001401BE00C3
:1008F4000E0090009E0090008A1F78003FFE0700C3
:100904004F05780000079800110798000A00FB00C3
:10091400A2002000110009000200D80001007800A4
:10092400C200DD00A0C02C00010240001401BE0082
:100934000E0090009E00900030FE07001F0037005C
:100944006A54E100180034000A00FB00A2002000F1
:10095400110009000200D80069004000C200DD0057
:10096400A0C02C00010140001200BE000007980046
:10097400110798000A00FB00A200200011000900E2
:100984000200D80001007800C200DD00A0C02C00E5
:10099400010240001401BE000E0090009E00900071
:1009A40016FE0700050037000A00FB00C200DD0048
:1009B400A0C02C00010140001200BE000080FA001B
:0409C4000000060029
:100200000000FA00020007001602040000000000CF
:10021000889FBE008A9FBE008C1F780030000700B8
:100220003700330003866C006450E1002400320084
:100230006420E100270032006150E100220032001A
:100240006120E100210032008B854200EB07B10004
:100250000134B800003AB8000804420089844A001A
:10026000013AB8000030B8008880400009014A0017
:100270000400330000004000818048000201490072
:100280008B05E900C909DD0083017000010032001F
:1002900013002000C814DE004814DD004709DE000A
:1002A0001200B200C808DE000884700024000700B5
:1002B00001F0A1000CF0A70003E0A800190037002E
:1002C0006120E1001B0032000881BE000280BE00F8
:1002D000F7FF37006150E100FCFF3A0015003700DE
:1002E0000084BE003C0007000083BE000485BE0001
:1002F0000280BE0038000700844F75000000060031
:100300000280BE006450E100050036006420E10078
:10031000020036000968A30001003A000880BE0010
:1003200002C0A8004F0678004F05BE004F04BE0073
:1003300000000600F0FF2F00F1FF2700F9FF370053
:1003400081002000618055000B003D000B00200063
:1003500061FE2F000100E1001D0034008281710068
:10036000610164008904D1000884D3000000E80022
:10037000FAFF3A0071002000610064000300700081
:10038000020060000900320061044400E0844C0077
:100390000988A500050032008B05E8006808E10027
:1003A00002003A008904D1000884D300F20F200033
:1003B0000258E10005003D00C75DDD00F907B2000D
:1003C0008980750008008800000006000BF82700EF
:1003D0001B00880000000500C70ADE00F107B2001C
:1003E000F50FB20008003200E1CF420002003200F7
:1003F00002E0A80024000500810F70000100320017
:100400000408050044000500810F700002003A0056
:10041000140005008502E9000000400081C048008A
:10042000FCFF3B0002E0A800240005000080FA0069
:0404300000000600C2
:100588000400FA00E0C6B3000054E100310039006D
:100598000A80FB0042062000110009000200D80072
:1005A80072004000C200DD0060BD2C000101400067
:1005B8001200BE008A1F78000200200003F023000A
:1005C8000DFF07004F0578000007980011079800F5
:1005D8000A80FB0042062000110009000200D80032
:1005E80001007800A2002000110009000200D800D4
:1005F80069004000C200DD0060BD2C00010240001F
:100608001401BE000E0090009E0090008A1F780022
:10061800F9FE07004F0578000007980011079800B9
:100628000A80FB00A2002000110009000200D80087
:1006380001007800C200DD0060BD2C00010240000E
:100648001401BE000E0090009E009000EAFE070014
:10065800270037006A54E1001D0036000A80FB00BD
:10066800A2002000110009000200D8006900400023
:10067800C200DD0060BD2C00010140001200BE0078
:100688008A1F78000200200003F02300DAFE07002A
:100698004F05780000079800110798000A80FB00B2
:1006A800A2002000110009000200D8000100780013
:1006B800C200DD0060BD2C00010240001401BE0034
:1006C8000E0090009E009000CBFE07000800370047
:1006D8000A80FB00C200DD0060BD2C000101400063
:1006E8001200BE000200200003F02300C2FE070033
:0806F8000080FA00000006007A
:100560000000FA0014002000B2FF07000080FA002B
:040570000000060081
:100434000000FA0002000700880204000000000027
:10044400841F7800140007004F0078001100330067
:10045400F0FF2F00838F6C0006003B00040565004D
:100464000A00A7000800370009F0A60010002000C9
:1004740008003700820F5400838F5C0003003900AA
:100484001000200001003E000000200009F0A70039
:100494000000EA00000006000084BE000600070019
:1004A4000083BE000485BE000280BE000200070077
:1004B400844F750000000600C70ADE00F107B20091
:1004C400F50FB20008003200E1CF42000200320012
:1004D40002E0A80024000500810F70000100320032
:1004E4000408050044000500810F700002003A0072
:1004F400140005008502E9000000400081C04800A6
:10050400FCFF3B0002E0A800240005000080FA0084
:0405140000000600DD
:100574000000FA00F4FF2F00ADFF07000080FA002E
:04058400000006006D
:103444000000FA0002000700541B04000000000002
:10345400889FBE008A9FBE008C1F78003E00070034
:103464004500330003866C006450E1002E003200F6
:103474006420E100330032006150E1002F0032008B
:103484006120E1003100320085855500EB07B00072
:103494000900200008042000050037000804440047
:1034A40089844C000A0031000603430087834B00E3
:1034B4000001530081815B00F8FF33000283BE00EA
:1034C4001000A8000804440089844C00F6FF390069
:1034D400C639DD00830173000100320013002000AF
:1034E4008904D1000884D3000998A30005003200A0
:1034F4000800A7000600A8008904D1000884D300AE
:103504008B05E8008904D1000884D3000001EB0096
:103514000281D2002800070001F0A1000CF0A700EE
:1035240003E0A8001D0037006420E1001F00320002
:103534000881BE000280BE00F7FF37006120E10071
:103544001A0032006000B800F3FF370000002000CA
:1035540001F82700F0FF37000084BE003C0007009C
:103564000083BE000485BE000280BE003800070050
:10357400844F7500000006000280BE006450E10024
:10358400050036006420E100020036000968A3004B
:1035940001003A000880BE0002C0A8004F0678006F
:1035A4004F05BE004F04BE0000000600F0FF2F00D0
:1035B400F1FF2700F9FF37008100200061805500EA
:1035C4000B003D000B00200061FE2F000100E10014
:1035D4001D00340082817100610164008904D100FE
:1035E4000884D3000000E800FAFF3A0071002000CC
:1035F40061006400030070000200600009003200F2
:1036040061044400E0844C000988A50005003200F0
:103614008B05E8006808E10002003A008904D10043
:103624000884D300F20F20000258E10005003D0099
:10363400C75DDD00F907B2008980750008008800C5
:10364400000006000BF827001B008800000005009E
:10365400C70ADE00F107B200F50FB200080032001D
:10366400E1CF42000200320002E0A800240005007D
:10367400810F7000010032000408050044000500B9
:10368400810F700002003A00140005008502E90071
:103694000000400081C04800FCFF3B0002E0A8009D
:0C36A400240005000080FA000000060071
:100D38000000FA0002000700040704000000000099
:100D48000081BE00190007000470A70003F0A1008D
:100D580003F8A30013003A006509B100100032003F
:100D6800090035006928E10002003500010028006B
:100D78000000050000004000818048008502E9006D
:100D8800FCFF3A0000000600F88F4200050035001D
:100D98008100D1000080D3008502E800FCFF3A0002
:100DA800000006008000EB0000000500C70ADE0016
:100DB800F107B200F50FB20008003200E1CF42009F
:100DC8000200320002E0A80024000500810F700034
:100DD800010032000408050044000500810F70007E
:100DE80002003A00140005008502E90000004000F6
:100DF80081C04800FCFF3B0002E0A8002400050079
:080E08000080FA000000060062
:100BCC000000FA0002000700980604000000000074
:100BDC000400E20006003A000005EB000200E2000F
:100BEC000F003E000000E200270032000C0037002E
:100BFC00A10088000200E2000400350008003C005F
:100C0C000000E200200032000500370060001000F8
:100C1C00E080180002003B0001F02C001A003700A5
:100C2C000084BE006011B8006B0920000982CF005F
:100C3C00020039000882CF000441B0006942520022
:100C4C000E00320008003B008281710061016400DB
:100C5C008904D1000884D3008B05E8000442E80025
:100C6C00F9FF3A00050037000804440089844C0061
:100C7C008B05E9000442E900FBFF3A000300070082
:100C8C000AF0A70003E0A800000006008100200085
:100C9C00618055000B003D000B00200061FE2F0011
:100CAC000100E1001D0034008281710061016400CB
:100CBC008904D1000884D3000000E800FAFF3A0050
:100CCC0071002000610064000300700002006000ED
:100CDC000900320061044400E0844C000988A5003E
:100CEC00050032008B05E8006808E10002003A00BC
:100CFC008904D1000884D300F20F20000258E100CF
:100D0C0005003D00C75DDD00F907B2008980750064
:100D1C0008008800000006000BF827001B00880064
:0C0D2C00000005000080FA000000060036
:1010E8000000FA0007E0AA0047FF07000080FA00A6
:0410F80000000600EE
:100E10000000FA0002000700700804000000000053
:100E2000889FBE008A9FBE008C1F78005900070073
:100E3000600033006450E1004F0032006420E100A4
:100E40005200320003826C0007003B000905D0000D
:100E50000306D000820F54000C065D00020039002A
:100E60000200320039008800C300880085825500E6
:100E700004003D000003FD008103FD008502EA003F
:100E80008B854200840F720002003B00600010005E
:100E9000E08018006011B8000005EB007A28E1003E
:100EA0000A00390006008800C75DDD00F707B200C0
:100EB000878075002D003700828171002A0088002C
:100EC000610560008180D1000080D3008502E900C7
:100ED000F9FF3B00060440008784480002003B0005
:100EE00060041400E0841C000988A300070032009D
:100EF0008A81710082817100610164008904D100DE
:100F00000884D3008B05E800170037000978A30098
:100F100013003A001600E200130034008B05E900CC
:100F20000804440089844C000A4474000978A30032
:100F30000D003A001600E200070034008B05E900BE
:100F40000804440089844C0001003A000B00200092
:100F50000978A300F7FF32000001EB000200370020
:100F6000828171002A008800220007000CF0A7008F
:100F700003E0A800180037006420E10002003A00F6
:100F8000838F6C00180033000881BE000280BE0011
:100F9000110037000084BE003C0007000083BE0043
:100FA0000485BE000280BE0038000700844F750033
:100FB000000006000280BE006450E100050036001B
:100FC0006420E100020036000968A30001003A0035
:100FD0000880BE0002C0A8004F0678004F05BE0082
:100FE0004F04BE0000000600F0FF2F00F1FF2700B5
:100FF000F9FF370081002000618055000B003D00A3
:101000000B00200061FE2F000100E1001D003400F4
:1010100082817100610164008904D1000884D300D9
:101020000000E800FAFF3A0071002000610064004F
:1010300003007000020060000900320061044400F7
:10104000E0844C000988A500050032008B05E8000B
:101050006808E10002003A008904D1000884D30046
:10106000F20F20000258E10005003D00C75DDD00E1
:10107000F907B200898075000800880000000600AA
:101080000BF827001B00880000000500C70ADE00DF
:10109000F107B200F50FB20008003200E1CF4200C4
:1010A0000200320002E0A80024000500810F700059
:1010B000010032000408050044000500810F7000A3
:1010C00002003A00140005008502E900000040001B
:1010D00081C04800FCFF3B0002E0A800240005009E
:0810E0000080FA000000060088
:100ADC000000FA0002000700E2050400000000001C
:100AEC000081BE001F0007000470A70003F0A100E6
:100AFC006509B100160032000D0035006828E100D0
:100B0C0006003500F0FF2F00F1FF27000600E20081
:100B1C0013003B000100280000000500000040000D
:100B2C00818048008502E900FCFF3A00080037008C
:100B3C00F88F420002003C008000EB000000050032
:100B4C008100D1000080D3008502E800FCFF3A0050
:100B5C000600E20002003B0060001000E08018007C
:100B6C0000000600C70ADE00F107B200F50FB20064
:100B7C0008003200E1CF42000200320002E0A8007F
:100B8C0024000500810F70000100320004080500EC
:100B9C0044000500810F700002003A0014000500AB
:100BAC008502E9000000400081C04800FCFF3B00CA
:100BBC0002E0A800240005000080FA0000000600F6
:000BCC0029
:1082D4000000FA000682BF007F0060000000E20098
:1082E40001003200FBFF37000622A80084F60700D5
:0882F4000080FA000000060002
:10895C000000FA000682BF007F0060000000E20009
:10896C0001003200FBFF37000662A800E2F40700AA
:10897C000682BF007F0060000000E20001003200B0
:10898C00FBFF37001400E2000200320006A2A80030
:10899C000100370006A2A9000682A800D6F4070041
:0C89AC0000C2BF000080FA0000000600BE
:109240008A41780041C0B3000820EF000240E200EC
:109250000E0032000A80FB000181FB000200DE00EC
:10926000004578000040E200030032000142420065
:109270008A41780001003700034578000180FB0037
:109280004100DE0080407800F0FF370004407800A5
:0492900000000600D4
:1089140090EF20001080FB00C100DD0060F020001B
:1089240001004000100078008A1F78000000010058
:108934004F05780090EF20000A4878000A80FB0079
:10894400C100DD00C0EF20000100400010007800ED
:08895400000001000000060014
:0C89CC00A1F90700BBFA0700000006003C
:107054000200FA008A1F78008B1F78008C1F7800CA
:107064008D1F7800BFFD070000479800219F200076
:107074001104E10004003A00EEFC07000040E200C5
:1070840001003A000E0037000D032000BCC3B3001A
:107094008BC2B3000A002800CDFC0700209F20000B
:1070A4003DC0B300CCC2B3008E45900010457800BB
:1070B400F5FC0700219F20000E40900080487800D6
:1070C400CF0678004F067800CF0578004F0578008A
:0870D4000080FA000000060034
:10676800E0D020001004E00002003200A0C3B30013
:106778000900370010D020001004E00002003200A9
:10678800B0C3B3000400370000D020009080FB00A5
:0C6798000003200000804000000006000C
:0C64380040A32000104078000000060087
:1063D4001ABB8800107621000B487800D075210084
:1063E4000C487800007621000D487800413B2100DC
:1063F4000020EF00804878000C80FB00C380DE00A2
:1064040040762100014878000C80FB0082002000C7
:10641400110009000200D800010078000000E20029
:106424000300320011C0B3004076210010C84000C0
:04643400000006005E
:10648C008A1F78008B1F78008C1F78008C1F780077
:10649C008B1F78008C4578000D46780015FD0700A1
:1064AC00CF0578004F0678000B4578008C457800B6
:1064BC000D46780014FD07004F067800CF057800D4
:0864CC004F05780000000600F6
:105900008D1F78001A20EF00CCF80700CF06780032
:04591000000006008D
:103C3C000200FA00107621009080FB0040762100F3
:103C4C001080FB000008B8000020EC000001780098
:103C5C008001EB008A80FB00007621001080FB00C5
:103C6C00008050008000EB008EFE070022762100C1
:103C7C00920140001341780061044000E084480048
:103C8C000820EF00824378000724E1003400310063
:103C9C000A20EF0040762100102CE1002E003100AC
:103CAC008480FB00407621001080FB000009B800E6
:103CBC0020762100900041000580FB000080400030
:103CCC00880040000B00370011407800E0004700EE
:103CDC0080C8EA000D0037001140780000479800BA
:103CEC000A00370011407800E000470080C8EA0065
:103CFC0006003700606CE100F3FF3200616CE100FC
:103D0C00F5FF3200626CE100F6FF32000580FB002B
:103D1C00C300DD000C80FB00010140008B80FB0028
:103D2C000480FB0000804000849FBE008C1F780044
:103D3C008A9FBE000E4690008245780000457800B0
:103D4C0061FE07004F05BE004F0678004F02BE0013
:103D5C000A60EC00CFFF37000860EC00CAFF3700A8
:0C3D6C00074078000080FA00000006000C
:1036D4008A1F7800F0C7B3000054E10004003E00E4
:1036E400F0C3B300005CE10001003E0001003700BC
:1036F4005D0037000A80FB0002042000110009006D
:103704000200D80001007800804178000B80FB00A3
:103714004380DE00004278000B80FB008200200022
:10372400110009000200D80001007800004178006F
:103734000040E2003B0032008C80FB000280FB0072
:103744000008DD00804278000A80FB00C680DE00AD
:103754008048210001487800B04B210003487800DC
:10376400B045210004487800B7F40700004378000E
:10377400403B21001004E00006003A000280FB00F8
:10378400E8001000F00F20000100DE000043630099
:10379400000037008580FB000680FB00008070007D
:1037A4000045780097F407006140420080407800AB
:1037B4006704E100010036002B003700B04B210004
:1037C40003487800B0452100014878009EF40700C2
:1037D400004278000280FB00E80010000C80FB002F
:1037E4000100DE0080417800403B21001004E0002D
:1037F40005003A00F10F20000280FB000008DD0004
:103804000041620001003700044178008380FB001E
:103814000280FB00008070000045780079F4070006
:10382400110037000A80FB00C680DE0080482100BA
:1038340001487800B04B210003487800B0452100CE
:1038440004487800403B21001004E00003003200EB
:103854007DF4070000407600010037000C4078003A
:103864000045780067F407004F0578000000060063
:0038740054
:100A4C00804821001080FB00C900DD00B04521006A
:100A5C001080FB004600DD0080804000B04B210080
:100A6C001080FB008080400040FB20000100400013
:080A7C001040780000000600A4
:100A0800804821001080FB00C900DD00B0452100AE
:100A18001080FB004600DD0080804000B04B2100C4
:100A28001080FB008080400040FB20000100400057
:100A38000A48780011C0B300B04B210010C840002C
:040A480000000600A4
:0C444400403B21000A4878000000060000
:105914008D1F78001DC0B300C7F80700CF067800BC
:045924000000060079
:1074C0000200FA008A1F78000020EF0000479800B1
:1074D0000E4090006404E1000E0031000E45900063
:1074E00098FC07000040E20004003A00D2FB0700CD
:1074F0000040E20001003A00020037000E45900013
:107500003FFC07008E4090006000470061C84000CB
:10751000EFFF37004F0578000080FA0000000600FA
:007520006B
:106744000A80FB00C100DD0080A120001080400011
:10675400100078006800400010407800634060003A
:04676400000006002B
:106600000600FA008B1F78008C1F78008D1F780021
:106610000A80FB00C100DD0080A120001080400046
:1066200010007800000798008A1F780087FC070098
:106630004F0578009EFC070020479800E9FC070002
:10664000304798008A1F78000D0220008CC0B300EC
:106650006BC0B3005A092C005EFF07000E009000CB
:1066600000A0EC00BE4690002E46900090057800F9
:1066700010057800ACFC07000E0090006900400097
:1066800010407800404798000D0220000CC1B30074
:106690000BC1B300CA7C2A004EFF07004F057800EB
:1066A000B3FC070020479800C2FC07003047980061
:1066B0008E009000EA8040008A1F78000046780033
:1066C000AE45900001057800B2F507004F0578004F
:1066D0008A1F7800F3FB07004F0578000E0090003A
:1066E000E90040004E4090001104E1000200320039
:1066F0009FFC0700204798000E0090006A004000B1
:106700008A1F78003E469000AE4590000005780054
:1067100047F707004F057800D9F90700CF06780042
:106720004F067800CF0578000080FA0000000600D0
:0067300069
:10584C008A1F78008B1F78008C1F78008D1F7800C2
:10585C000A80FB00C100DD00F0E82C008100400054
:10586C00114178000220EC00114078000080FB0010
:10587C00E10040000280FB000020EC00DDC1B30021
:10588C009CC2B300814578000045780043F90700BD
:10589C00CF0678004F067800CF0578004F057800CA
:0458AC0000000600F2
:103DA8000C00FA008B1F78008A80FB000C80FB0057
:103DB80080804000F00720000008E10007003E0076
:103DC8008B80FB000D80FB0080804000F00320000A
:103DD8000008E10001003E000100370080013700C3
:103DE8000B80FB004380DE00504798000B80FB00EF
:103DF80082002000110009000200D80001007800AC
:103E0800604798008080FB000D80FB000080400028
:103E18008C9FBE008A1F78008000EB0069F30700C2
:103E2800020020000310240084FD07000005BE00E6
:103E380006FF070027F307004F0578004F06BE006E
:103E480000437800E60047009180FB00688140004D
:103E58008D80FB00010141000080FB00C300DD00F4
:103E68006700470001485100F0C3B3000054E10067
:103E78000460EF0001003E000460EC00824378001B
:103E88008A80FB000C80FB0080804000F00320004B
:103E98000008E1001060EF00010036001060EC003F
:103EA8000440E200020032000020EF000100370069
:103EB80010C0B300804178001040E20002003200D8
:103EC80010C0B300010037000020EF00204F980019
:103ED8000A4F9800F0C3B3000054E1000400360014
:103EE8000E49900001C4B300680047000148510022
:103EF800680047009080FB000C80FB008080400039
:103F0800114F9800F0C3B300000CE1000200340028
:103F1800F0C3B300104F98002347980086427800FA
:103F28008741780008417800AE4090006A00470059
:103F3800100CE1002A013E001E4890006004E100D8
:103F480027013400814821002E40900080487800E5
:103F58005E40900000479800024478008343780050
:103F680005427800650047009080FB000480FB0054
:103F780080804000600047001080FB000100E100E5
:103F8800080131000E4090006804E100050131008D
:103F9800B14521000E40900080487800B14B2100C7
:103FA8000E489000804878008E40900065004700D9
:103FB800100CE10057003A000E4890001047980096
:103FC800610047009080FB00690047001000FB007B
:103FD8000008E1004E003C00F10F20006600470099
:103FE8001080FB000008DD00E300470080C8EA00FD
:103FF80094F20700E3004700914860009E4090005B
:1040080068004700100CE1000B003A002E409000B9
:104018006004E1000060EF0001003A000060EC007D
:104028008780FB000080FB00008068000000AF0074
:104038000100370016003700610047009080FB0040
:10404800690047001000FB000008E1000F003A007B
:104058002E4090006104E1000060EF0001003A008A
:104068000060EC008880FB000080FB000080680096
:104078000000E2000060EF0001003A000060EC0080
:104088000000AE00010037000100370006003700CD
:10409800F10F2000660047001080FB000008DD00DB
:1040A8004047980005003700660047009080FB00F5
:1040B800100020000100DD0040479800CE4090002D
:1040C8006300470010C870009E409000E0C3B30032
:1040D800000CE10003003900B14521000E409000BA
:1040E80080487800B14B21001E409000804878003D
:1040F8008A1F78003E45900041F207004F0578007E
:104108009E4090006100470061C84000ACFF370046
:10411800A0003700650047009080FB000480FB008A
:1041280000804000E1005000600047001080FB0064
:104138000100E1005D003A00670047001004E0005C
:104148005A0032000E48900010479800610047005E
:104158009080FB00690047001000FB000008E100A8
:1041680051003C00F10F2000670047001000FB00E1
:104178000008DD003047980032F20700630147006D
:10418800E3004700924860009E40900068004700A6
:10419800100CE1000B003A002E4090006004E10092
:1041A8000060EF0001003A000060EC008780FB002F
:1041B8000080FB00008068000000AF0001003700AD
:1041C80016003700610047009080FB006900470037
:1041D8001000FB000008E1000F003A002E4090009C
:1041E8006104E1000060EF0001003A000060EC00AB
:1041F8008880FB000080FB00008068000000E2006F
:104208000060EF0001003A000060EC000000AE0022
:10421800010037000100370007003700F10F2000C8
:10422800670047001000FB000008DD00E4004700BD
:1042380080C8EA0006003700670047001000FB004E
:10424800E1005000100020000100DD004047980008
:104258003E419000E40047006300470011487100A8
:104268009E409000D0C3B300000CE1000300390069
:10427800B14521000E40900080487800B14B2100E4
:104288001E409000804878008A1F78003E459000C4
:10429800DBF107004F0578009E4090006100470061
:1042A80061C84000A9FF37003A0037000E48900067
:1042B80010479800610047009080FB0069004700A4
:1042C8001000FB000008E10032003C009E40900016
:1042D80068004700100CE1000B003A002E409000E7
:1042E8006004E1000060EF0001003A000060EC00AB
:1042F8008780FB000080FB00008068000000AF00A2
:104308000100370016003700610047009080FB006D
:10431800690047001000FB000008E1000F003A00A8
:104328002E4090006104E1000060EF0001003A00B7
:104338000060EC008880FB000080FB0000806800C3
:104348000000E2000060EF0001003A000060EC00AD
:104358000000AE00010037000100370003003700FD
:10436800F0CFB30030479800020037000020EF007C
:10437800304798008A1F78003E459000A0F107005A
:104388004F0578009E4090006100470061C84000DA
:10439800C8FF37008E4090006000470061C84000A9
:1043A800F0FE37008A80FB000C80FB000081400093
:1043B80001C4B30069004700014851000020EF0024
:1043C800004F9800AE4090006200470061C840006E
:1043D800844278008741780008417800D2FE37008F
:0C43E800CF0578000080FA0000000600FD
:103A54000000FA00C758DE000001EB00F00F200060
:103A640080806000F0072000008050008000780013
:103A74006000E10010003D000420EF000620EF008C
:103A84000A00BE00B5F207000000E0000060EF008D
:103A940001003C000060EC000040E2000300320042
:103AA4000020EF000220EF001D003700000020007E
:103AB40001F823001A0037007808E10002003600FC
:103AC4000A00BE00160037008A9FBE000A00BE002E
:103AD40001F407000081EB003BF407004F05BE0032
:103AE4000001BE00829FBE000A01BE009BF20700D7
:103AF4000000E0000060EF0001003D000060EC0009
:103B04004F01BE000040E20004003200000020002B
:103B140001F82300BDF40700010037000200BE00D5
:083B24000080FA000000060019
:1058B0000A80FB00C100DD0080A1200010804000B4
:1058C00010007800E6014000F0E82C008100400064
:1058D000114078000080FB00740140009380FB00C1
:1058E000600020000088B9004180DE000000510007
:0458F00000000600AE
:1059E4000A80FB00C100DD00F0E82C00010040004B
:1059F400E1004000114078000080FB00630040009B
:045A04000000060098
:105928008A1F78008B1F78008C1F78008C1F7800E6
:105938008B1F78008C4578000D46780013F9070016
:10594800CF0578004F0678000B0578008C45780065
:105958000D467800B4FA07004F067800CF057800A6
:085968004F0578000000060065
:103D94008D1F78001A20EF0008FF0700CF06780077
:043DA4000000060015
:1039C00030F40700004178008B4278000A0278004A
:1039D0000620EF00021CE10013003100821F780076
:1039E000849FBE00831F78008A9FBE0085457800B3
:1039F00014457800910007004F05BE00CF01780004
:103A00004F02BE004F0178008580FB000080FB0064
:103A1000008040000060EC000820EC000660EC0034
:0C3A200080427800EBFF37000000060039
:100A84000000FA008A007800010078000220EC00DF
:100A94001004E00001003200FBFF37000A80500020
:0C0AA4000020ED000080FA0000000600B9
:104430008D1F78001DC0B30061FD0700CF06780016
:044440000000060072
:105970000A80FB00C100DD0080A1200010804000F3
:1059800010007800E9014000F0E82C0081004000A0
:10599000114078000080FB00740140009380FB0000
:1059A000600020000088B9004180DE000000510046
:0459B00000000600ED
:1059B4000A80FB00C100DD00F0E82C00010040007B
:1059C400E1004000114078000080FB0069004000C5
:1059D4006B004000680050000020EC00000006004E
:0059E400C3
:1056A4000200FA008A1F78008B1F78000A80FB0032
:1056B400C100DD0080A1200010804000900178002E
:1056C40010007800680040001041780000C7B30063
:1056D400804061000180FB00C400DE0001407800CE
:1056E4000460AE005400370041003700748041006C
:1056F40010007800EA804100831F7800801F780042
:1057040090EC2C00801F7800811F78006CFD07004E
:105714006F00B100CF017800400037007480410071
:10572400EA804100831F7800B01F7800A01F780032
:10573400A0EB2C00801F7800811F780060FD07001B
:105744008F00B100CF01780034003700748041002D
:105754001004E000070032006A804100831F7800D3
:105764008B5721000005780021FB0700CF0178004A
:10577400060037006A804100831F78006B572100C0
:10578400000578001AFB0700CF01780023003700DA
:10579400F48041006A804100831F780091057800FD
:1057A4000005780012FB0700CF0178001B003700CA
:1057B400F4804100628040001001780011007800FC
:1057C400EA804100831F7800821F7800801F7800E0
:1057D40070E92C00801F7800811F780038FD0700D5
:1057E4008F00B100CF0178000C0037000B003700A8
:1057F4006104E100BDFF32006204E100C7FF320032
:105804006304E100D1FF32006004E100E0FF3200F4
:105814006404E100E6FF3200F4FF370069804100D0
:10582400000798006A8041000005780094EC0700A6
:105834008E00900080487800CF0578004F057800EE
:085844000080FA0000000600DC
:1043F4000000FA000A00780000017800E1014000A2
:104404008B007800618045008005780011497800B0
:104414001204E0000200320003007800F6FF3700C7
:0C4424000A0078000080FA00000006008A
:104E80000A80FB00C100DD0080A1200010804000EE
:104E9000100078006801400092407800C0CFB30055
:084EA00000C9600000000600DB
:0889C40053FA07000000060051
:107314000200FA008A1F7800F09D20009040780057
:10732400509D2000100CE10003003E00F09D200061
:107334001041780002003700509D20001041780071
:10734400F05421009000FB000280FB00008040000C
:1073540010479800110020000055210010884000BB
:10736400F054210010407800004798008E409000AF
:1073740061004700100CE100120031000E4590003E
:10738400EFFC07000040E20008003A000E459000C0
:1073940086FC07000040E20004003A0025FC0700D8
:1073A4000040E20001003A00020037000E45900060
:1073B40047FC07008E4090006000470061C8400011
:1073C400EAFF37004F0578000080FA00000006004D
:0073D400B9
:1065B0000200FA0018FA07000040E2000D00320065
:1065C0000A80FB00C100DD0080A120001080400097
:1065D00010007800670040000007980099FB070052
:1065E0008E0090001104E1000200310010C0B300E1
:1065F000010037000020EF000080FA0000000600D4
:006600009A
:104E1800809D20009000FB000A80FB000008E10054
:104E28000060EF0001003A000060EC00000006009E
:004E38007A
:105444000A80FB00C100DD0080A120001080400024
:105454001000780069004000104178001040780086
:105464006004E10006003600E09D20009080FB000F
:105474000280FB00008050000020ED000200370095
:0C548400E09D20001040780000000600B1
:1064D4001600FA008B1F78008C1F78008D1F78003F
:1064E4008A80FB00F05421001000FB000081500062
:1064F400A1572100600047001148410045FA0700F8
:106504000040E2000300320000C0B30010479800CE
:106514000200370010C0B300104798001E409000DE
:106524000040E2000060EF0001003A000060EC006F
:106534008A1F7800804578000E459000A3FB070071
:106544004F057800620047008A1F78008A4578006A
:1065540000057800CDFB07000D0220008CC0B300BD
:106564006BC0B3005ADF2B0099FF0700600047009F
:106574001080FB00C300DD00620047009E469000CF
:10658400014678001620EF00000578000BF507009F
:106594004F05780039FA0700CF0678004F067800D7
:0C65A400CF0578000080FA00000006001F
:1053D0000220EF000420EF00615CE10002003A00CF
:1053E000F2CFB30000003700B04521000A48780032
:1053F0000620EF00010278006118E10010003C0077
:105400008048210003487800B04B21000448780010
:10541000000420000020E10006003D008A1F780003
:105420000245780078ED07004F0578000820EC0071
:10543000F7FF37000820EF000620EC00EEFF3700F2
:045440000000060062
:105490000800FA008A9FBE000B45780081000700D3
:1054A0004F05BE000B80FB00C100DD0080A1200085
:1054B000108040001000780030079800690040001C
:1054C00010407800404798008A1F78000B4578000C
:1054D000FFFB07004F057800100798008A9FBE0069
:1054E0000B45780003FC07004F05BE0080017800E3
:1054F0003E00900067004000104378008A1F78004B
:105500000B457800CFFF07004F0578000042780078
:105510000A20EF00830378000480FB000028E100EC
:1055200027003D0087804200010798000680FB00AD
:105530000008E10008003D00050145003E00900024
:105540006400400090007800600047001080400038
:1055500010497800170037008E0090006200470065
:105560001008E100070035008A1F78000B4578001D
:105570000F0407004F0578000040E20001003200F0
:10558000040037008500450000C2B3008048780061
:1055900008003700850145003E009000640140008E
:1055A0008E00900062004700108050001200400002
:1055B000904978006180420080027800D6FF370071
:1055C0004E4090006004E100240036000020EF000F
:1055D000000798000E0090006100E10009003D0006
:1055E0008500450000C2B300804878006181420018
:1055F0008E009000600047006188400082027800C1
:10560000F4FF37000020EF000007980085017800C4
:10561000640047009080FB00600047001008E10034
:105620000C003400030145003E009000EA004000F9
:10563000600047001080400010497800E18241007E
:105640008E0090006000470061884000850178006E
:10565000EFFF3700030078000100370005007800F5
:105660008000450000C2B300804878000080FA0046
:045670000000060030
:1044D0000A80FB00C100DD0080A1200010804000A8
:1044E00010007800670040001080FB00640040006E
:0444F00000000600C2
:1044F4002E0807000040E200180032008A1F7800EE
:1045040080AA8000CF80DE000081EB00AEF10700BE
:10451400D2CC2C00C3DC230038EF070002002000BB
:104524000306240035EF07006BF107004F05780000
:1045340000017800E5FF07000010E10004003500E9
:104544000220EF000020EF0080AA8800010037005D
:104554008200780001007800010037000020EF009D
:04456400000006004D
:0489C00000000600AD
:0889B8004FFA07000000060061
:1072F800819D20000020EF0080487800F154210093
:0C7308000020EF00804878000000060024
:108498008A1F78008B1F78008C1F78008D1F78004A
:1084A8002D6A2100DCC0B3002B6621001AC0B3007E
:1084B800E6FB0700CF0678004F067800CF05780066
:0884C8004F05780000000600DA
:107454008A1F78008C9FBE008B1F7800F8FB070002
:10746400709D20001080FB00C100DD00E09C200026
:10747400010040001000780000000100CF057800F2
:107484004F06BE000D0578007DE507007400E1009D
:1074940005003D008B1F78008D0578009A9B200025
:1074A400D3F30700CF057800CB508800509D20000F
:0C74B4000C4878004F057800000006002E
:10644400118A200010C0B30080487800D19C20003D
:1064540010C0B3008048780041A3200010C0B300EE
:10646400804878008A1F7800CA2B200058FA070059
:106474004F057800619D200080487800709D2000C1
:086484000A4878000000060040
:104DD4008A1F78008B1F78000A0078008000EB009F
:104DE40079EF070002002000A347240094F907008C
:104DF400020020000312240000ED07000005BE009D
:104E040056FB070034EF0700CF0578004F05780004
:044E14000000060094
:103B60000000FA00C758DE000001EB00F00F200053
:103B700080806000F0072000008050008000780006
:103B80006000E10010003D000420EF000620EF007F
:103B90000A00BE0072F207000000E0000060EF00C3
:103BA00001003D000060EC000040E2000300320034
:103BB0000000200001F82B001E0037000020EF005D
:103BC0000220EF001B0037007808E10002003600F9
:103BD0000A00BE00170037008A9FBE000A00BE0020
:103BE000BEF307000081EB00F8F307004F05BE00AD
:103BF0000002BE00849FBE000A01BE005DF2070005
:103C00000000E0000060EF00010034000060EC0004
:103C10004F02BE000040E20005003200020020001A
:103C200003F823000400BE002FF507000100370051
:0C3C30000400BE000080FA000000060046
:1069A4008A1F78008B1F78008C1F78008D1F780059
:1069B4001620EF00EADF2000DFF807001B002000AC
:1069C4002ADD2000DCF807002B002000CADB2000B1
:1069D400D9F807003B0020006ADA2000D6F8070047
:1069E400CD6721006CC0B300CB4B21001AC0B300AB
:1069F40097020700CF0678004F067800CF0578008D
:086A04004F05780000000600B8
:104D3C008B1F7800740045000B0878007400450048
:104D4C0010007800C100DD0020E3200001004000CD
:104D5C0010007800E20040006A0045008A1F7800CD
:104D6C0091057800000578009FFD07004F0578003D
:104D7C00690145007400450010007800C100DD0099
:104D8C0020E3200001004000100078006600400085
:104D9C0010497800E8004500114078006140680037
:104DAC00634060001140680080487800CF057800AF
:044DBC0000000600ED
:10696C008A1F78008B1F78008C1F78008D1F780091
:10697C00CDE220003CC1B3002BE320001AC0B300D1
:10698C00B1020700CF0678004F067800CF057800DB
:08699C004F0578000000060021
:106A0C008A1F78008B1F78008C1F78008D1F7800F0
:106A1C00BDEA20003CC1B3002BE320001420EF00A2
:106A2C0089020700CF0678004F067800CF05780062
:086A3C004F0578000000060080
:106900008A1F78008B1F78008C1F78008D1F7800FD
:106910005A682100E20407003D6E21003CC1B3002B
:106920002BE320001420EF00CA02070068062000B5
:10693000B79C2B000E20ED00FEFF3A001020ED006A
:10694000FCFF3A00000000002A6C2100D40407007C
:106950009A6A210038F90700CF0678004F067800C0
:0C696000CF0578004F057800000006000D
:104E38008B1F780050A320001004E000040032000B
:104E48008A1F7800B5FF07004F0578000300370078
:104E58008A1F7800A70D07004F057800B1A1200030
:104E68000020EF00804878003BC0B30088FF0700AF
:084E7800CF05780000000600E0
:104D2400F50D070041A3200010C0B30080487800AF
:084D34005CF10700000006001D
:1084FC008A1F78001420EF00F5FA07004F0578006A
:04850C000000060065
:1070DC001440E2000000320057FE070000000600DA
